:100000000C945E000C9474040C94A1040C9486006F
:100010000C9486000C9486000C9486000C94860048
:100020000C9486000C9486000C9486000C94860038
:100030000C9486000C9486000C9486000C94860028
:100040000C942F050C9486000C94FB060C94370737
:100050000C9486000C9486000C9486000C94860008
:100060000C9486000C94860000000007000201003A
:100070000003040600000000000000000102040864
:100080001020408001020408102001020408102002
:10009000040404040404040402020202020203032E
:1000A0000303030300000000250028002B000000CC
:1000B0000000240027002A004A04F20711241FBE72
:1000C000CFEFD8E0DEBFCDBF11E0A0E0B1E0E2E2CB
:1000D000F4E102C005900D92A836B107D9F712E0FD
:1000E000A8E6B1E001C01D92A63DB107E1F710E01E
:1000F000CCEBD0E004C02297FE010E940B0AC83B63
:10010000D107C9F70E9442080C94A1090C94000081
:10011000FC01748363830895262F2150223338F421
:10012000FC01E60FF11DE60FF11D54834383089592
:100130008B549F4F21E0FC0120830895FC01DC01DA
:10014000A055BF4F6D937C93DC01AC54BF4F1C9204
:10015000DC01AB54BF4F1C92DC01AD54BF4F4C933C
:10016000DC01AE54BF4F2C9380E481838FE3828304
:100170001082DF01A455BF4F1D921C92DF01A255D2
:10018000BF4F1D921C92DF01A555BF4F81E08C939C
:100190001482138280E090E0DF01A80FB91F169649
:1001A0001C921E921597029684369105A9F7E7597D
:1001B000FF4F108208950C949E000F931F93CF93CE
:1001C000DF9300D0CDB7DEB78C011A821982FC0113
:1001D000ED54FF4F80818983F801E655FF4F808100
:1001E000882351F1813031F4C80186599F4F22E0B4
:1001F000208302C080E090E0F801E555FF4F2081A8
:10020000222369F0A80142555F4FBE016F5F7F4F07
:100210000E94B809F801E455FF4F91838083F801EB
:10022000E455FF4F80819181892B31F0F801E5552C
:10023000FF4F108281E001C080E00F900F90DF91AE
:10024000CF911F910F9108950C94DD004F925F9212
:100250006F927F928F929F92AF92BF92CF92DF92D6
:10026000EF92FF920F931F93CF93DF938C01EB01DB
:100270000E9479056B017C014B015C0100551F4F09
:100280002E01662457FC6094762CD8018D919C91A8
:10029000DC01ED91FC910480F581E02D0995892B1D
:1002A00059F0D701C60188199909AA09BB0948164E
:1002B00059066A067B0628F40E9479054B015C0109
:1002C000E4CF80E0DF91CF911F910F91FF90EF90ED
:1002D000DF90CF90BF90AF909F908F907F906F9066
:1002E0005F904F9008957F928F929F92AF92BF92AE
:1002F000CF92DF92EF92FF920F931F93CF93DF93F2
:10030000EC014A01722E7C0189E6E80EF11C81E0C5
:10031000F70180838E0100551F4F4AE050E0F8013D
:10032000808191810E946109FE01ED54FF4F60813F
:10033000F801808191810E948908B401F8018081CF
:1003400091810E948708FE01EE54FF4F6081F80101
:10035000808191810E948908FE01EB54FF4F8081CA
:10036000882329F0F801808191810E9490087720EC
:1003700039F0B601CE010E9426011A141B04CCF3F9
:10038000F701108280E090E0DF91CF911F910F91F3
:10039000FF90EF90DF90CF90BF90AF909F908F90A5
:1003A0007F900895CF93DF93EC010E94DD008823B6
:1003B00069F0FE01E555FF4F81E08083C455DF4FB2
:1003C00088819981DF91CF910C94830980E090E03E
:1003D000DF91CF910895CF93DF93EC010E94D2017A
:1003E00001978233910558F4FC01EE0FFF1FEC0FCB
:1003F000FD1F0580F681E02D309709F002C0EB81EA
:10040000FC81DF91CF910994CF93DF93FC01DC0154
:10041000A655BF4F1C92161617060CF04EC0862F1D
:10042000EF01CE54DF4F2881908162130BC0EF01A2
:10043000C90FD11DC659DF4F1882992371F181E090
:100440008C932BC0DF01A90FB11DA659BF4F6C9330
:100450009F5F90832281921780F01082DF01A45564
:10046000BF4F1D921C92DF01A255BF4F1D921C92DF
:10047000DF01A555BF4F91E09C93DF01AC54BF4F06
:100480009C919923D1F0DF01AD54BF4F9C91891706
:10049000A1F08A3011F08D3081F41082DF01A45573
:1004A000BF4F1D921C92DF01A255BF4F1D921C929F
:1004B000DF01A555BF4F81E08C93EF01C655DF4F9B
:1004C0008881813019F4CF010E94EB018881DF918E
:1004D000CF910895EF92FF920F931F93CF93DF93E5
:1004E000EC017C0189E6E80EF11C8E0100551F4FDE
:1004F000D7018C9181111BC0F80180819181DC01B1
:10050000ED91FC910480F581E02D0995892B79F01E
:10051000F80180819181DC01ED91FC910680F781E9
:10052000E02D0995BC01CE010E940402E1CFDF91CC
:10053000CF911F910F91FF90EF900895EF92FF924E
:100540000F931F93CF93DF931F92CDB7DEB77C013C
:100550008B0149830E94DD0049818823A9F0F701BE
:10056000E555FF4F81E08083F701E455FF4F60813F
:10057000718150E0C8010F90DF91CF911F910F91D1
:10058000FF90EF900C94A409442311F0F80110821D
:100590000F90DF91CF911F910F91FF90EF900895F1
:1005A000EEE1F2E08081918101969183808308954C
:1005B000E0E2F2E080819181019691838083089549
:1005C000AF92BF92CF92DF92EF92FF920F931F9361
:1005D0008AE0A82EB12C98E8C92E93E1D92EE12CFF
:1005E000F12C00E010E020E04EE051E063E070E02C
:1005F00088E691E00E9473011F910F91FF90EF90A8
:10060000DF90CF90BF90AF900895AF92BF92CF92FE
:10061000DF92EF92FF920F931F932AE0A22EB12C4C
:1006200038E8C32E33E1D32EE12CF12C00E010E0AA
:1006300020E04EE151E061E070E088E691E00E9448
:1006400073011F910F91FF90EF90DF90CF90BF90BB
:10065000AF9008950F931F93CF93DF93EC018B011D
:1006600061E0809108010E942806D7FF05C060E084
:10067000809108010E94280660E0809104010E9498
:10068000280617FF05C061E0809104010E9428063A
:10069000BE01D7FF04C0662777276C1B7D0B8091B6
:1006A0000A010E94CE04B80117FF04C0662777270D
:1006B000601B710B809106010E94CE046CE271E018
:1006C0008FE292E00E9487084AE050E0B8018FE292
:1006D00092E00E9461096EE371E08FE292E00E9475
:1006E00087084AE050E0BE018FE292E0DF91CF91AF
:1006F0001F910F910C94690960E070E080910601F0
:100700000E94CE0460E070E080910A010E94CE0455
:1007100060E471E08FE292E00C94A6080C947C03F4
:100720000F931F93CF93DF93CDB7DEB7CE55D14054
:100730000FB6F894DEBF0FBECDBF88E691E00E94F1
:100740002401882309F18E010F5F1F4F8EE591E090
:10075000F8019C01119221503040E1F74EE5B801BB
:1007600088E691E00E949E02C8010E9483099C01D4
:1007700021308FEF38072CF02F3F310509F024F49A
:1007800005C021E03FEF02C02FEF30E0C901C25A9F
:10079000DE4F0FB6F894DEBF0FBECDBFDF91CF9115
:1007A0001F910F910895CF93DF9388E691E00E9407
:1007B0002401882351F00E949003EC010E949003D1
:1007C000BE01DF91CF910C942A03DF91CF91089560
:1007D0001F93CF93DF93EC0114E006C0612F88E6EE
:1007E00091E00E948C001F5F49915991411551057C
:1007F000A9F7DF91CF911F91089540E052EC61E09D
:1008000070E08FE292E00E94720788E691E00E9419
:10081000980045E053E062E088E691E00E948C0099
:1008200060EE72E088E691E00E94880080E091E04E
:100830000E94E80360E083E00E94F00560E082E04F
:100840000E94F00561E083E00E94280661E082E0FA
:100850000E94280641E050E060ED72E080E00E94D6
:10086000540441E050E068ED72E081E00E945404DD
:100870000E94050361E0809104010E94F00561E09F
:10088000809108010C94F00588E691E00E946A02CC
:100890000C94790520910C0140910D016FE272E0FA
:1008A00088E691E00C94DB008230E8F4E82FF0E079
:1008B000EE0FFF1FEE5DFD4F71836083813041F0CD
:1008C000809169008C7F842B80936900E89A089559
:1008D00080916900440F551F440F551F837F842B5F
:1008E00080936900E99A08951F920F920FB60F92B4
:1008F00011242F933F934F935F936F937F938F9325
:100900009F93AF93BF93EF93FF93809122029091B7
:100910002302892B29F0E0912202F091230209950C
:10092000FF91EF91BF91AF919F918F917F916F91C7
:100930005F914F913F912F910F900FBE0F901F909D
:1009400018951F920F920FB60F9211242F933F9379
:100950004F935F936F937F938F939F93AF93BF93C7
:10096000EF93FF938091240290912502892B29F027
:10097000E0912402F09125020995FF91EF91BF913A
:10098000AF919F918F917F916F915F914F913F9127
:100990002F910F900FBE0F901F9018951F93CF931C
:1009A000DF93182FEB0161E00E94F005209711F40E
:1009B00060E004C0CF3FD10539F461E0812FDF91C1
:1009C000CF911F910C942806E12FF0E0E859FF4FDA
:1009D000E491E330B9F028F4E13051F0E230B1F5C0
:1009E0000CC0E63019F1E73049F1E43079F514C074
:1009F00084B5806884BDC7BD2EC084B5806284BDC7
:100A0000C8BD29C080918000806880938000D09309
:100A10008900C09388001FC080918000806280930D
:100A20008000D0938B00C0938A0015C08091B000E5
:100A300080688093B000C093B3000DC08091B00077
:100A400080628093B000C093B40005C0C038D10567
:100A50000CF0B3CFADCFDF91CF911F9108951F92CE
:100A60000F920FB60F9211242F933F938F939F9362
:100A7000AF93BF938091260290912702A091280204
:100A8000B091290230912E02232F2D5F2D3720F4B3
:100A90000196A11DB11D05C0232F2A570296A11D45
:100AA000B11D20932E028093260290932702A093DB
:100AB0002802B093290280912A0290912B02A091E2
:100AC0002C02B0912D020196A11DB11D80932A0226
:100AD00090932B02A0932C02B0932D02BF91AF9163
:100AE0009F918F913F912F910F900FBE0F901F906C
:100AF00018950F931F938FB7F894009126021091C9
:100B0000270220912802309129028FBFB801C90124
:100B10001F910F910895789484B5826084BD84B547
:100B2000816084BD85B5826085BD85B5816085BDE8
:100B3000EEE6F0E0808181608083E1E8F0E0108201
:100B4000808182608083808181608083E0E8F0E042
:100B5000808181608083E1EBF0E08081846080832C
:100B6000E0EBF0E0808181608083EAE7F0E0808163
:100B700084608083808182608083808181608083C3
:100B80008081806880831092C1000895833069F06D
:100B900028F48130A1F0823011F514C08630B1F014
:100BA0008730C1F08430D9F404C0809180008F7701
:100BB00003C0809180008F7D80938000089584B56C
:100BC0008F7702C084B58F7D84BD08958091B00079
:100BD0008F7703C08091B0008F7D8093B00008951F
:100BE000CF93DF9390E0FC01E458FF4F4491FC0168
:100BF000E057FF4F8491882341F190E0880F991FBF
:100C0000FC01E255FF4F25913491D9018C559F4F3E
:100C1000FC0185919491C82FD92F9FB7F8948C919E
:100C2000611106C0409584238C938881842308C079
:100C3000623041F4242F209582238C938881842B69
:100C4000888302C0842B8C939FBFDF91CF9108953E
:100C50000F931F93CF93DF931F92CDB7DEB7282F4B
:100C600030E0F901E859FF4F8491F901E458FF4F52
:100C70001491F901E057FF4F04910023D1F088232C
:100C800021F069830E94C6056981E02FF0E0EE0F34
:100C9000FF1FEC55FF4F85919491DC019FB7F894AD
:100CA0008C91611103C01095812301C0812B8C931D
:100CB0009FBF0F90DF91CF911F910F910895FC017D
:100CC00084859585FC01E05CFF4F20813181FC012A
:100CD000EE5BFF4F80819181281B390B2F733327E7
:100CE000C9010895FC0184859585FC01E05CFF4FF6
:100CF00040815181FC01EE5BFF4F20813181421721
:100D0000530741F00190F081E02DE80FF91F208199
:100D100030E002C02FEF3FEFC9010895FC01848548
:100D20009585FC01E05CFF4F40815181FC01EE5B49
:100D3000FF4F208131814217530781F0A081B1819B
:100D4000A80FB91F8C91208131812F5F3F4F2F73E6
:100D5000332731832083282F30E002C02FEF3FEF6D
:100D6000C9010895FC0186859785FC01E05CFF4F71
:100D7000DC01AE5BBF4F408151812D913C911197B9
:100D800042175307C1F70895CF93DF93FC0186857F
:100D90009785DC01A05CBF4F2D913C9111972F5F8F
:100DA0003F4F2F733327EC01CE5BDF4F48815981D2
:100DB00024173507D9F30D90BC91A02DA80FB91FAA
:100DC0006C93A685B785A05CBF4F11963C932E937C
:100DD000A689B7892C9181E090E0058C02C0880F2C
:100DE000991F0A94E2F7282B2C9381E090E0DF9181
:100DF000CF91089508951F920F920FB60F9211246C
:100E00002F933F934F938F939F93EF93FF93409133
:100E1000C6008091D2029091D30201968F739927D8
:100E20002091D4023091D5028217930759F0E091B6
:100E3000D202F091D302EE56FD4F40839093D3023D
:100E40008093D202FF91EF919F918F914F913F91AB
:100E50002F910F900FBE0F901F9018958FE292E088
:100E60000E945F06892B11F00C94FA0608951F92D8
:100E70000F920FB60F9211242F933F938F939F934E
:100E8000EF93FF9320918E0230918F028091900218
:100E9000909191022817390731F48091C1008F7D1C
:100EA0008093C10014C0E0919002F0919102E25B46
:100EB000FD4F2081809190029091910201968F7355
:100EC000992790939102809390022093C600FF91FE
:100ED000EF919F918F913F912F910F900FBE0F90A7
:100EE0001F901895CF92DF92EF92FF92CF93DF93EE
:100EF000EC016A017B01411581EE5807610571051E
:100F0000F9F0EC89FD8981E090E00E8C02C0880F39
:100F1000991F0A94E2F7808360E079E08DE390E026
:100F2000A70196010E94E7092150310941095109A1
:100F30005695479537952795211580E1380798F004
:100F4000EC89FD89108260E874E88EE190E0A701E9
:100F500096010E94E709215031094109510956952E
:100F6000479537952795E889F9893083EA89FB8980
:100F70002083EE89FF89408181E090E09C010A8C0A
:100F800002C0220F331F0A94E2F7422B4083EE89FE
:100F9000FF8940819C010B8C02C0220F331F0A94F1
:100FA000E2F7422B4083EE89FF8940819C010C8C43
:100FB00002C0220F331F0A94E2F7422B4083EE89CE
:100FC000FF8920810D8C02C0880F991F0A94E2F7D7
:100FD000809582238083DF91CF91FF90EF90DF9007
:100FE000CF900895109232021092310288EE93E071
:100FF000A0E0B0E08093330290933402A0933502D6
:10100000B09336028BE591E09093300280932F02EB
:1010100082E992E090933C0280933B028EE492E05E
:1010200090933E0280933D0285EC90E090934002C5
:1010300080933F0284EC90E09093420280934102BF
:1010400080EC90E0909344028093430281EC90E026
:10105000909346028093450286EC90E0909348027C
:101060008093470284E08093490283E080934A02A0
:1010700087E080934B0285E080934C0281E080936F
:101080004D0208950E948B050E94FD03CEE2D7E039
:101090000E9444042097E1F30E942E07F9CFCF92DB
:1010A000DF92EF92FF920F931F93CF93DF936C0128
:1010B000EB017A01E60EF71E00E010E00BC069912B
:1010C000D601ED91FC910190F081E02DC6010995CA
:1010D000080F191FCE15DF0591F7C801DF91CF91D9
:1010E0001F910F91FF90EF90DF90CF900895DB015B
:1010F0000D900020E9F7AD0141505109461B570BF7
:10110000DC01ED91FC910280F381E02D09940C94B7
:101110007708DC01ED91FC910190F081E02D0994BC
:101120000F931F93CF93DF93EC016DE00E9489082A
:101130008C016AE0CE010E9489089C01200F311FBA
:10114000C901DF91CF911F910F9108950F931F93C4
:10115000CF93DF93EC010E9477088C01CE010E94AF
:1011600090089801280F391FC901DF91CF911F9175
:101170000F9108954F925F926F927F929F92AF92DC
:10118000BF92CF92DF92EF92FF920F931F93CF9374
:10119000DF93CDB7DEB7A1970FB6F894DEBF0FBED1
:1011A000CDBF5C016A017B01922E19A281E08217FA
:1011B00010F08AE0982E8E010F5D1F4F492C512CA4
:1011C000612C712CC701B601A30192010E94E709AD
:1011D0008C2D929E80191124015011098A3014F42B
:1011E000805D01C0895CF801808369017A01C114C6
:1011F000D104E104F10431F7B801C5010E94770878
:10120000A1960FB6F894DEBF0FBECDBFDF91CF9190
:101210001F910F91FF90EF90DF90CF90BF90AF9014
:101220009F907F906F905F904F900895CF92DF9244
:10123000EF92FF920F931F93CF93DF93EC016A011C
:101240007B012115310579F4E881F9810190F08164
:10125000E02D642FDF91CF911F910F91FF90EF90C0
:10126000DF90CF9009942A30310519F477FD0EC034
:101270002AE0B701A601CE01DF91CF911F910F9116
:10128000FF90EF90DF90CF900C94BA086DE20E942F
:1012900089088C0144275527BA014C195D096E094C
:1012A0007F092AE0CE010E94BA08080F191FC80161
:1012B000DF91CF911F910F91FF90EF90DF90CF9032
:1012C00008959A01AB01662757FD6095762F0C941F
:1012D00016090F931F93CF93DF93EC019A01AB0193
:1012E000662757FD6095762F0E9416098C01CE0166
:1012F0000E9490089801280F391FC901DF91CF91F2
:101300001F910F910895FC0188279927E894219156
:101310002032E9F3293010F02E30C8F32B3241F09F
:101320002D3239F4689404C00E94DF09820F911DA8
:10133000219120532A30C0F31EF4909581959F4F40
:101340000895F8940C940F0ADC01FB0141505040C1
:1013500058F049F001900D920020C1F7E61BF70B01
:101360003197CF0108951C9201900020E9F7F6CF44
:10137000FA01A191B081009719F41097E1F0CD0125
:10138000DC01CD010D90002011F4C00113C0FB0160
:101390002191222319F02015D9F7F3CFFB012191D8
:1013A000201519F41E92119606C02223C1F70D9044
:1013B0000020A1F7D001FA01A193B08308957AE04B
:1013C000979F902D879F802D910D11240895A1E264
:1013D0001A2EAA1BBB1BFD010DC0AA1FBB1FEE1FAF
:1013E000FF1FA217B307E407F50720F0A21BB30BFA
:1013F000E40BF50B661F771F881F991F1A9469F776
:1014000060957095809590959B01AC01BD01CF01D1
:101410000895EE0FFF1F0590F491E02D0994F894C4
:02142000FFCFFC
:10142200D3038E0304000500070006003B2C556E13
:101432006B6E6F776E20636F6D6D616E64004172CB
:101442006475696E6F20726561647900436F6D6DBA
:10145200616E642045584543555445443A002C007A
:10146200436F6D6D616E6420455845435554454444
:101472003A2053544F500000000000C4064F085F4A
:08148200068E067206B2060098
:00000001FF
