:100000000C947C000C947D070C94AA070C94A4001B
:100010000C94A4000C94A4000C94A4000C94A400D0
:100020000C94A4000C94A4000C94A4000C94A400C0
:100030000C94A4000C94A4000C94A4000C94A400B0
:100040000C9438080C94A4000C94540A0C94900A54
:100050000C94A4000C94A4000C94A4000C94A40090
:100060000C94A4000C94A4000000000700020100FE
:100070000003040600000000000000000102040864
:100080001020408001020408102001020408102002
:10009000040404040404040402020202020203032E
:1000A0000303030300000000250028002B000000CC
:1000B0000000240027002A00494E46494E49545961
:1000C0004E414E000020410000C84200401C462026
:1000D000BCBE4CCA1B0E5AAEC59D74CDCCCC3D0ADD
:1000E000D7233C17B7D13877CC2B329595E6241F10
:1000F000B14F0A0053074B0B11241FBECFEFD8E0BE
:10010000DEBFCDBF11E0A0E0B1E0E0E2F4E202C06A
:1001100005900D92AE36B107D9F712E0AEE6B1E028
:1001200001C01D92AE3DB107E1F710E0C8EFD0E08D
:1001300004C02297FE010E940A12C43FD107C9F7EA
:100140000E949B0B0C94BD0D0C940000FC01748369
:1001500063830895262F2150223338F4FC01E60FE3
:10016000F11DE60FF11D5483438308958B549F4F77
:1001700021E0FC0120830895FC01DC01A055BF4F64
:100180006D937C93DC01AC54BF4F1C92DC01AB54EB
:10019000BF4F1C92DC01AD54BF4F4C93DC01AE54F9
:1001A000BF4F2C9380E481838FE382831082DF0131
:1001B000A455BF4F1D921C92DF01A255BF4F1D9247
:1001C0001C92DF01A555BF4F81E08C9314821382EE
:1001D00080E090E0DF01A80FB91F16961C921E92D6
:1001E0001597029684369105A9F7E759FF4F1082BB
:1001F00008950C94BC000F931F93CF93DF9300D00E
:10020000CDB7DEB78C011A821982FC01ED54FF4F85
:1002100080818983F801E655FF4F8081882351F161
:10022000813031F4C80186599F4F22E0208302C0FB
:1002300080E090E0F801E555FF4F2081222369F02E
:10024000A80142555F4FBE016F5F7F4F0E94DC0DDA
:10025000F801E455FF4F91838083F801E455FF4F87
:1002600080819181892B31F0F801E555FF4F108293
:1002700081E001C080E00F900F90DF91CF911F913E
:100280000F9108950C94FB004F925F926F927F92B2
:100290008F929F92AF92BF92CF92DF92EF92FF9296
:1002A0000F931F93CF93DF938C01EB010E94820881
:1002B0006B017C014B015C0100551F4F2E01662430
:1002C00057FC6094762CD8018D919C91DC01ED91C6
:1002D000FC910480F581E02D0995892B59F0D70117
:1002E000C60188199909AA09BB09481659066A0660
:1002F0007B0628F40E9482084B015C01E4CF80E079
:10030000DF91CF911F910F91FF90EF90DF90CF90F1
:10031000BF90AF909F908F907F906F905F904F9025
:1003200008957F928F929F92AF92BF92CF92DF9269
:10033000EF92FF920F931F93CF93DF93EC014A014B
:10034000722E7C0189E6E80EF11C81E0F7018083C2
:100350008E0100551F4F4AE050E0F80180819181E5
:100360000E94BA0CFE01ED54FF4F6081F8018081BC
:1003700091810E94E20BB401F801808191810E9479
:10038000E00BFE01EE54FF4F6081F8018081918106
:100390000E94E20BFE01EB54FF4F8081882329F07D
:1003A000F801808191810E94E90B772039F0B60134
:1003B000CE010E9444011A141B04CCF3F7011082F1
:1003C00080E090E0DF91CF911F910F91FF90EF902F
:1003D000DF90CF90BF90AF909F908F907F900895C7
:1003E000CF93DF93EC010E94FB00882369F0FE01AC
:1003F000E555FF4F81E08083C455DF4F88819981A7
:10040000DF91CF910C949F0D80E090E0DF91CF9130
:100410000895CF93DF93EC010E94F001019782339E
:10042000910558F4FC01EE0FFF1FEC0FFD1F058036
:10043000F681E02D309709F002C0EB81FC81DF915D
:10044000CF910994CF93DF93FC01DC01A655BF4FF8
:100450001C92161617060CF04EC0862FEF01CE54D4
:10046000DF4F2881908162130BC0EF01C90FD11DAE
:10047000C659DF4F1882992371F181E08C932BC00C
:10048000DF01A90FB11DA659BF4F6C939F5F9083E9
:100490002281921780F01082DF01A455BF4F1D9278
:1004A0001C92DF01A255BF4F1D921C92DF01A55582
:1004B000BF4F91E09C93DF01AC54BF4F9C919923B7
:1004C000D1F0DF01AD54BF4F9C918917A1F08A3064
:1004D00011F08D3081F41082DF01A455BF4F1D92C1
:1004E0001C92DF01A255BF4F1D921C92DF01A55542
:1004F000BF4F81E08C93EF01C655DF4F888181307B
:1005000019F4CF010E9409028881DF91CF910895EB
:10051000EF92FF920F931F93CF93DF93EC017C0137
:1005200089E6E80EF11C8E0100551F4FD7018C9112
:1005300081111BC0F80180819181DC01ED91FC915A
:100540000480F581E02D0995892B79F0F8018081EF
:100550009181DC01ED91FC910680F781E02D0995F8
:10056000BC01CE010E942202E1CFDF91CF911F9109
:100570000F91FF90EF900895EF92FF920F931F93CA
:10058000CF93DF931F92CDB7DEB77C018B014983F8
:100590000E94FB0049818823A9F0F701E555FF4F30
:1005A00081E08083F701E455FF4F6081718150E065
:1005B000C8010F90DF91CF911F910F91FF90EF90A5
:1005C0000C94C80D442311F0F80110820F90DF91B4
:1005D000CF911F910F91FF90EF900895E4E2F2E028
:1005E000808191810196918380830895E6E2F2E013
:1005F000808191810196918380830895AF92BF920B
:10060000CF92DF92EF92FF920F931F938AE0A82E72
:10061000B12C98E8C92E93E1D92EE12CF12C00E001
:1006200010E020E042E151E063E070E08EE691E00E
:100630000E9491011F910F91FF90EF90DF90CF905A
:10064000BF90AF900895AF92BF92CF92DF92EF929A
:10065000FF920F931F932AE0A22EB12C38E8C32EED
:1006600033E1D32EE12CF12C00E010E020E042E257
:1006700051E061E070E08EE691E00E9491011F91EF
:100680000F91FF90EF90DF90CF90BF90AF900895C3
:100690008F929F92AF92BF92CF92DF92EF92FF9292
:1006A0000F931F93CF93DF93CDB7DEB7CE55D140D5
:1006B0000FB6F894DEBF0FBECDBF8E010F5F1F4F88
:1006C0008EE591E0F8019C01119221503040E1F754
:1006D0004EE5B8018EE691E00E94BC02C8010E947E
:1006E0009B0D4B015C0120E030E0A9010E94700EDF
:1006F00087FD0BC020E030E04FE753E4C501B401B3
:100700000E94BF0F18162CF00AC0812C912C5401A6
:1007100006C0812C912C5FE7A52E53E4B52E4EE543
:10072000BE016F5F7F4F8EE691E00E94BC02CE015A
:1007300001960E949B0D6B017C0120E030E0A90135
:100740000E94700E87FD0BC020E030E04FE753E4BD
:10075000C701B6010E94BF0F18162CF00AC0C12CA9
:10076000D12C760106C0C12CD12C4FE7E42E43E4F6
:10077000F42E61E08DE00E94810920E030E040E24B
:1007800051E4C501B4010E94C30F0E94E10E0E9412
:10079000BE0860E08DE00E94810920E030E040E288
:1007A00051E4C701B6010E94C30F0E94E10E0E94EE
:1007B000BE0860E371E085E392E00E94E00B22E076
:1007C00030E0B501A40185E392E00E94850D62E46A
:1007D00071E085E392E00E94E00B22E030E0B70197
:1007E000A60185E392E00E94870DC25ADE4F0FB644
:1007F000F894DEBF0FBECDBFDF91CF911F910F9157
:10080000FF90EF90DF90CF90BF90AF909F908F9030
:1008100008958EE691E00E94420181110C944803F4
:1008200008950F931F93CF93DF93EC018B0161E049
:1008300080910C010E948109D7FF05C060E0809182
:100840000C010E94810960E0809108010E948109E9
:1008500017FF05C061E0809108010E948109BE0177
:10086000D7FF04C0662777276C1B7D0B80910E0194
:100870000E94D707B80117FF04C066277727601BBF
:10088000710B80910A010E94D70760E371E085E354
:1008900092E00E94E00B4AE050E0B80185E392E06C
:1008A0000E94BA0C62E471E085E392E00E94E00BE2
:1008B0004AE050E0BE0185E392E0DF91CF911F91C5
:1008C0000F910C94C20C60E070E080910A010E94CC
:1008D000D70760E070E080910E010E94D70764E4C2
:1008E00071E085E392E00C94FF0B0C9463040F938A
:1008F0001F93CF93DF93CDB7DEB7CE55D1400FB660
:10090000F894DEBF0FBECDBF8EE691E00E9442019B
:10091000882309F18E010F5F1F4F8EE591E0F801EA
:100920009C01119221503040E1F74EE5B8018EE66E
:1009300091E00E94BC02C8010E949F0D9C012130E1
:100940008FEF38072CF02F3F310509F024F405C054
:1009500021E03FEF02C02FEF30E0C901C25ADE4F65
:100960000FB6F894DEBF0FBECDBFDF91CF911F91C0
:100970000F910895CF93DF938EE691E00E9442019C
:10098000882351F00E947704EC010E947704BE0195
:10099000DF91CF910C941104DF91CF910895EF92E4
:1009A000FF920F931F93CF93DF93CDB7DEB7CE5552
:1009B000D1400FB6F894DEBF0FBECDBF8EE691E0FA
:1009C0000E944201882369F18E010F5F1F4F8EE55F
:1009D00091E0F8019C01119221503040E1F74EE581
:1009E000B8018EE691E00E94BC02C8010E949B0DF6
:1009F0007B018C0120E030E040E450EC7F2D912F12
:100A00000E94700E87FD12C020E030E040E450E408
:100A10006E2D7F2D802F912F0E94BF0F18165CF036
:100A20000EC0E12CF12C00E010E009C0E12CF12C0B
:100A300000E410EC04C0E12CF12C00E410E46E2D75
:100A40007F2D802F912FC25ADE4F0FB6F894DEBF54
:100A50000FBECDBFDF91CF911F910F91FF90EF900F
:100A60000895EF92FF920F931F93CF93DF93CDB72B
:100A7000DEB7CE55D1400FB6F894DEBF0FBECDBF66
:100A80008EE691E00E944201882369F18E010F5F9A
:100A90001F4F8EE591E0F8019C01119221503040EA
:100AA000E1F74EE5B8018EE691E00E94BC02C80174
:100AB0000E949B0D7B018C0120E030E040E251EC74
:100AC0007F2D912F0E94700E87FD12C020E030E034
:100AD00040E251E46E2D7F2D802F912F0E94BF0F99
:100AE00018165CF00EC0E12CF12C00E010E009C0FB
:100AF000E12CF12C00E211EC04C0E12CF12C00E21D
:100B000011E46E2D7F2D802F912FC25ADE4F0FB62C
:100B1000F894DEBF0FBECDBFDF91CF911F910F9133
:100B2000FF90EF9008954F925F926F927F928F9215
:100B30009F92AF92BF92CF92DF92EF92FF920F936C
:100B40001F93CF93DF934B015C0169017A0120E091
:100B500030E0A9010E94BF0F18163CF0B7FAB0941C
:100B6000B7F8B0940FEF1FEF02C001E010E020E0F3
:100B700030E0A901C701B6010E94BF0F18163CF072
:100B8000F7FAF094F7F8F094CFEFDFEF02C0C1E08E
:100B9000D0E02EE93FEE47EA5DE3C501B4010E94D3
:100BA000700E87FD5EC025E83BEE41ED5EE3C501BA
:100BB000B4010E94700E87FF1CC0B801882777FD22
:100BC0008095982F0E940F0F2B013C012EE93FEEDC
:100BD00047EA5DE3C501B4010E940B0E20ED34E449
:100BE00048E55BE30E94740E20E030E04CE552E4FF
:100BF00025C028E834EF4BE05FE3C501B4010E9453
:100C0000700E87FF27C0B801882777FD8095982F41
:100C10000E940F0F2B013C0125E83BEE41ED5EE306
:100C2000C501B4010E940B0E24E330E847EB5AE300
:100C30000E94740E20E030E04BE153E40E940C0E61
:100C40009B01AC01C301B2010E94C30F0E94DC0EE4
:100C50005B0109C08FEF809F5001819FB00C112470
:100C600002C0A12CB12C2EE93FEE47EA5DE3C7019B
:100C7000B6010E94700E87FD5EC025E83BEE41ED97
:100C80005EE3C701B6010E94700E87FF1CC0BE0163
:100C9000882777FD8095982F0E940F0F2B013C012C
:100CA0002EE93FEE47EA5DE3C701B6010E940B0E55
:100CB00020ED34E448E55BE30E94740E20E030E070
:100CC0004CE552E425C028E834EF4BE05FE3C70170
:100CD000B6010E94700E87FF27C0BE01882777FDEE
:100CE0008095982F0E940F0F2B013C0125E83BEEC9
:100CF00041ED5EE3C701B6010E940B0E24E330E82C
:100D000047EB5AE30E94740E20E030E04BE153E4DD
:100D10000E940C0E9B01AC01C301B2010E94C30FE3
:100D20000E94DC0ECB0109C02FEF2C9FC0012D9F2C
:100D3000900D112402C080E090E0B501DF91CF91C9
:100D40001F910F91FF90EF90DF90CF90BF90AF90E9
:100D50009F908F907F906F905F904F900C941104B4
:100D6000CF92DF92EF92FF926B017C01CA01B90131
:100D70002CEE31E548EB5DE30E94C30F9B01AC0113
:100D8000C701B6010E940C0E9B01AC01C701B60160
:100D9000FF90EF90DF90CF900C949305CF92DF926D
:100DA000EF92FF928EE691E00E944201882381F04B
:100DB0000E94CF046B017C010E9431059B01AC01B4
:100DC000C701B601FF90EF90DF90CF900C94B00672
:100DD000FF90EF90DF90CF9008951F93CF93DF9314
:100DE000EC0114E006C0612F8EE691E00E94AA009B
:100DF0001F5F4991599141155105A9F7DF91CF9195
:100E00001F91089540E052EC61E070E085E392E0CC
:100E10000E94CB0A8EE691E00E94B60043E253E0C6
:100E200062E08EE691E00E94AA006EEF72E08EE62C
:100E300091E00E94A60080E091E00E94ED0660E053
:100E400083E00E94490960E082E00E94490961E074
:100E500083E00E94810961E082E00E94810941E013
:100E600050E06EEE72E080E00E945D0741E050E0ED
:100E700066EF72E081E00E945D070E94230361E05B
:100E8000809108010E94490961E080910C010E9453
:100E9000490961E08DE00C9449098EE691E00E94D9
:100EA00088020C948208209110014091110165E3A1
:100EB00072E08EE691E00C94F9008230E8F4E82FBD
:100EC000F0E0EE0FFF1FE85DFD4F7183608381301E
:100ED00041F0809169008C7F842B80936900E89AAF
:100EE000089580916900440F551F440F551F837F5B
:100EF000842B80936900E99A08951F920F920FB690
:100F00000F9211242F933F934F935F936F937F938F
:100F10008F939F93AF93BF93EF93FF93809128029A
:100F200090912902892B29F0E0912802F091290261
:100F30000995FF91EF91BF91AF919F918F917F9113
:100F40006F915F914F913F912F910F900FBE0F9036
:100F50001F9018951F920F920FB60F9211242F9386
:100F60003F934F935F936F937F938F939F93AF9331
:100F7000BF93EF93FF9380912A0290912B02892BCC
:100F800029F0E0912A02F0912B020995FF91EF914F
:100F9000BF91AF919F918F917F916F915F914F9191
:100FA0003F912F910F900FBE0F901F9018951F9398
:100FB000CF93DF93182FEB0161E00E94490920973E
:100FC00011F460E004C0CF3FD10539F461E0812F16
:100FD000DF91CF911F910C948109E12FF0E0E85946
:100FE000FF4FE491E330B9F028F4E13051F0E23002
:100FF000B1F50CC0E63019F1E73049F1E43079F58C
:1010000014C084B5806884BDC7BD2EC084B580621D
:1010100084BDC8BD29C08091800080688093800015
:10102000D0938900C09388001FC0809180008062A7
:1010300080938000D0938B00C0938A0015C080916C
:10104000B00080688093B000C093B3000DC0809161
:10105000B00080628093B000C093B40005C0C03877
:10106000D1050CF0B3CFADCFDF91CF911F91089593
:101070001F920F920FB60F9211242F933F938F93CD
:101080009F93AF93BF9380912C0290912D02A091DA
:101090002E02B0912F0230913402232F2D5F2D3775
:1010A00020F40196A11DB11D05C0232F2A570296D9
:1010B000A11DB11D2093340280932C0290932D0228
:1010C000A0932E02B0932F028091300290913102B2
:1010D000A0913202B09133020196A11DB11D8093FF
:1010E000300290933102A0933202B0933302BF9149
:1010F000AF919F918F913F912F910F900FBE0F90C5
:101100001F9018950F931F938FB7F89400912C029E
:1011100010912D0220912E0230912F028FBFB80125
:10112000C9011F910F9108950F931F939FB7F894D2
:10113000009130021091310220913202309133023D
:1011400086B5A89B06C08F3F21F00F5F1F4F2F4F22
:101150003F4F9FBF322F212F102F0027080F111D47
:10116000211D311D42E0000F111F221F331F4A9520
:10117000D1F7B801C9011F910F910895CF92DF9265
:10118000EF92FF92CF93DF936B017C010E94940852
:10119000EB010EC00E9494086C1B7D0B683E7340EF
:1011A00038F081E0C81AD108E108F108C851DC4FD5
:1011B000C114D104E104F10469F7DF91CF91FF90EC
:1011C000EF90DF90CF900895789484B5826084BDCD
:1011D00084B5816084BD85B5826085BD85B581603B
:1011E00085BDEEE6F0E0808181608083E1E8F0E09B
:1011F0001082808182608083808181608083E0E8CA
:10120000F0E0808181608083E1EBF0E080818460A8
:101210008083E0EBF0E0808181608083EAE7F0E0AA
:10122000808184608083808182608083808181600E
:1012300080838081806880831092C100089583300C
:1012400069F028F48130A1F0823011F514C08630A5
:10125000B1F08730C1F08430D9F404C080918000AF
:101260008F7703C0809180008F7D809380000895E8
:1012700084B58F7702C084B58F7D84BD0895809139
:10128000B0008F7703C08091B0008F7D8093B00055
:101290000895CF93DF9390E0FC01E458FF4F449111
:1012A000FC01E057FF4F8491882341F190E0880FC3
:1012B000991FFC01E255FF4F25913491D9018C55BE
:1012C0009F4FFC0185919491C82FD92F9FB7F89417
:1012D0008C91611106C0409584238C93888184236E
:1012E00008C0623041F4242F209582238C9388819A
:1012F000842B888302C0842B8C939FBFDF91CF9176
:1013000008950F931F93CF93DF931F92CDB7DEB74E
:10131000282F30E0F901E859FF4F8491F901E45892
:10132000FF4F1491F901E057FF4F04910023D1F0D2
:10133000882321F069830E941F096981E02FF0E072
:10134000EE0FFF1FEC55FF4F85919491DC019FB785
:10135000F8948C91611103C01095812301C0812BF9
:101360008C939FBF0F90DF91CF911F910F910895A4
:10137000FC0184859585FC01E05CFF4F2081318173
:10138000FC01EE5BFF4F80819181281B390B2F738D
:101390003327C9010895FC0184859585FC01E05C33
:1013A000FF4F40815181FC01EE5BFF4F2081318175
:1013B0004217530741F00190F081E02DE80FF91F2B
:1013C000208130E002C02FEF3FEFC9010895FC01FA
:1013D00084859585FC01E05CFF4F40815181FC01D3
:1013E000EE5BFF4F208131814217530781F0A081CE
:1013F000B181A80FB91F8C91208131812F5F3F4FA0
:101400002F73332731832083282F30E002C02FEF42
:101410003FEFC9010895FC0186859785FC01E05CDA
:10142000FF4FDC01AE5BBF4F408151812D913C915C
:10143000119742175307C1F70895CF93DF93FC012B
:1014400086859785DC01A05CBF4F2D913C9111975B
:101450002F5F3F4F2F733327EC01CE5BDF4F488167
:10146000598124173507D9F30D90BC91A02DA80FF1
:10147000B91F6C93A685B785A05CBF4F11963C93AE
:101480002E93A689B7892C9181E090E0058C02C04B
:10149000880F991F0A94E2F7282B2C9381E090E0A3
:1014A000DF91CF91089508951F920F920FB60F927A
:1014B00011242F933F934F938F939F93EF93FF9319
:1014C0004091C6008091D8029091D90201968F7305
:1014D00099272091DA023091DB028217930759F0A5
:1014E000E091D802F091D902E856FD4F40839093E5
:1014F000D9028093D802FF91EF919F918F914F91E4
:101500003F912F910F900FBE0F901F90189585E37C
:1015100092E00E94B809892B11F00C94530A0895A7
:101520001F920F920FB60F9211242F933F938F9318
:101530009F93EF93FF9320919402309195028091B5
:101540009602909197022817390731F48091C100D3
:101550008F7D8093C10014C0E0919602F0919702B4
:10156000EC5AFD4F2081809196029091970201964E
:101570008F73992790939702809396022093C600C9
:10158000FF91EF919F918F913F912F910F900FBEFF
:101590000F901F901895CF92DF92EF92FF92CF930A
:1015A000DF93EC016A017B01411581EE580761056B
:1015B0007105F9F0EC89FD8981E090E00E8C02C0A4
:1015C000880F991F0A94E2F7808360E079E08DE349
:1015D00090E0A70196010E94A31121503109410911
:1015E00051095695479537952795211580E138077C
:1015F00098F0EC89FD89108260E874E88EE190E053
:10160000A70196010E94A3112150310941095109F6
:101610005695479537952795E889F9893083EA8962
:10162000FB892083EE89FF89408181E090E09C0165
:101630000A8C02C0220F331F0A94E2F7422B408328
:10164000EE89FF8940819C010B8C02C0220F331F61
:101650000A94E2F7422B4083EE89FF8940819C0186
:101660000C8C02C0220F331F0A94E2F7422B4083F6
:10167000EE89FF8920810D8C02C0880F991F0A9482
:10168000E2F7809582238083DF91CF91FF90EF90E6
:10169000DF90CF900895109238021092370288EEB2
:1016A00093E0A0E0B0E08093390290933A02A093D7
:1016B0003B02B0933C028FE591E090933602809319
:1016C000350288E992E0909342028093410284E5DA
:1016D00092E0909344028093430285EC90E09093D3
:1016E00046028093450284EC90E0909348028093F8
:1016F000470280EC90E090934A028093490281EC8B
:1017000090E090934C0280934B0286EC90E0909393
:101710004E0280934D0284E080934F0283E08093D9
:10172000500287E08093510285E08093520281E06D
:101730008093530208950E94E4080E940207C7E8BC
:10174000DAE00E944D072097E1F30E94870AF9CF63
:10175000CF92DF92EF92FF920F931F93CF93DF937D
:101760006C01EB017A01E60EF71E00E010E00BC001
:101770006991D601ED91FC910190F081E02DC601B7
:101780000995080F191FCE15DF0591F7C801DF91E4
:10179000CF911F910F91FF90EF90DF90CF90089520
:1017A000DB010D900020E9F7AD0141505109461BC6
:1017B000570BDC01ED91FC910280F381E02D09943F
:1017C0000C94D00BDC01ED91FC910190F081E02DA7
:1017D00009940F931F93CF93DF93EC016DE00E9468
:1017E000E20B8C016AE0CE010E94E20B9C01200F0B
:1017F000311FC901DF91CF911F910F9108950F9370
:101800001F93CF93DF93EC010E94D00B8C01CE018C
:101810000E94E90B9801280F391FC901DF91CF9170
:101820001F910F9108954F925F926F927F929F92B6
:10183000AF92BF92CF92DF92EF92FF920F931F93DE
:10184000CF93DF93CDB7DEB7A1970FB6F894DEBF85
:101850000FBECDBF5C016A017B01922E19A281E00F
:10186000821710F08AE0982E8E010F5D1F4F492CD1
:10187000512C612C712CC701B601A30192010E9469
:10188000A3118C2D929E80191124015011098A30C8
:1018900014F4805D01C0895CF801808369017A01DC
:1018A000C114D104E104F10431F7B801C5010E946B
:1018B000D00BA1960FB6F894DEBF0FBECDBFDF915F
:1018C000CF911F910F91FF90EF90DF90CF90BF903D
:1018D000AF909F907F906F905F904F900895CF92C0
:1018E000DF92EF92FF920F931F93CF93DF93EC0160
:1018F0006A017B012115310579F4E881F9810190B4
:10190000F081E02D642FDF91CF911F910F91FF9017
:10191000EF90DF90CF9009942A30310519F477FDCC
:101920000EC02AE0B701A601CE01DF91CF911F9131
:101930000F91FF90EF90DF90CF900C94130C6DE21D
:101940000E94E20B8C0144275527BA014C195D090E
:101950006E097F092AE0CE010E94130C080F191F9F
:10196000C801DF91CF911F910F91FF90EF90DF9011
:10197000CF9008959A01AB01662757FD6095762FA9
:101980000C946F0C0F931F93CF93DF93EC019A018C
:10199000AB01662757FD6095762F0E946F0C8C0176
:1019A000CE010E94E90B9801280F391FC901DF9170
:1019B000CF911F910F9108957F928F929F92AF9236
:1019C000BF92CF92DF92EF92FF920F931F93CF932C
:1019D000DF938C014A015B01F22E20E030E0A90187
:1019E000C501B4010E94700E87FF0AC06DE2C801F4
:1019F0000E94E20BEC01B7FAB094B7F8B09402C0C1
:101A0000C0E0D0E0E12C60E070E080E09FE307C040
:101A100020E030E040E251E40E94740EE394EF10C5
:101A2000F7CF262F372F482F592FC501B4010E9419
:101A30000C0E762E872E982EA92E0E94E10EB62E21
:101A4000C72ED82EE92E0E940D0F9B01AC01672DE9
:101A5000782D892D9A2D0E940B0EA62E972E882E5A
:101A6000792E2AE04B2D5C2D6D2D7E2DC8010E9414
:101A7000130CC80FD91FFF20B9F16BE671E0C80144
:101A80000E94D00BC80FD91F2FC020E030E040E2E9
:101A900051E46A2D792D882D972D0E94C30F762E43
:101AA000C72ED82EE92E0E94DC0E4B01AA2497FCEB
:101AB000A094BA2C2AE030E0B501A401C8010E942C
:101AC0006F0CC80FD91FC501B4010E940F0F9B01F5
:101AD000AC01672D7C2D8D2D9E2D0E940B0EA62E08
:101AE000972E882E792EFA94F110CFCFCE01DF9168
:101AF000CF911F910F91FF90EF90DF90CF90BF900B
:101B0000AF909F908F907F9008950C94DC0C0F9372
:101B10001F93CF93DF93EC010E94DC0C8C01CE016C
:101B20000E94E90B9801280F391FC901DF91CF915D
:101B30001F910F910895662777270C942610FC01BA
:101B400088279927E89421912032E9F3293010F071
:101B50002E30C8F32B3241F02D3239F4689404C092
:101B60000E94030E820F911D219120532A30C0F351
:101B70001EF4909581959F4F0895F8940C940E1241
:101B80009111BBC3803219F089508550D0F7089568
:101B9000DC01FB014150504058F049F001900D929A
:101BA0000020C1F7E61BF70B3197CF0108951C9277
:101BB00001900020E9F7F6CFFA01A191B0810097DA
:101BC00019F41097E1F0CD01DC01CD010D9000205A
:101BD00011F4C00113C0FB012191222319F020153B
:101BE000D9F7F3CFFB012191201519F41E9211961C
:101BF00006C02223C1F70D900020A1F7D001FA0101
:101C0000A193B08308957AE0979F902D879F802DB0
:101C1000910D112408955058BB27AA270ED075C1E5
:101C200066D130F06BD120F031F49F3F11F41EF4F7
:101C30005BC10EF4E095E7FB51C1E92F77D180F34A
:101C4000BA17620773078407950718F071F49EF5B9
:101C50008FC10EF4E0950B2EBA2FA02D0B01B90108
:101C600090010C01CA01A0011124FF27591B99F012
:101C7000593F50F4503E68F11A16F040A22F232F1E
:101C8000342F4427585FF3CF469537952795A7956E
:101C9000F0405395C9F77EF41F16BA0B620B730B15
:101CA000840BBAF09150A1F0FF0FBB1F661F771F86
:101CB000881FC2F70EC0BA0F621F731F841F48F43B
:101CC000879577956795B795F7959E3F08F0B3CFC1
:101CD0009395880F08F09927EE0F979587950895AB
:101CE000D9D008F481E008950CD00FC107D140F09D
:101CF000FED030F021F45F3F19F0F0C0511139C12E
:101D0000F3C014D198F39923C9F35523B1F3951B6C
:101D1000550BBB27AA2762177307840738F09F5F0C
:101D20005F4F220F331F441FAA1FA9F333D00E2E7B
:101D30003AF0E0E830D091505040E695001CCAF7E8
:101D400029D0FE2F27D0660F771F881FBB1F2617AD
:101D500037074807AB07B0E809F0BB0B802DBF0180
:101D6000FF2793585F4F2AF09E3F510568F0B6C099
:101D700000C15F3FECF3983EDCF38695779567955D
:101D8000B795F7959F5FC9F7880F911D9695879531
:101D900097F90895E1E0660F771F881FBB1F621750
:101DA00073078407BA0720F0621B730B840BBA0B0E
:101DB000EE1F88F7E095089504D06894B111D9C05A
:101DC0000895BCD088F09F5790F0B92F9927B7514C
:101DD000A0F0D1F0660F771F881F991F1AF0BA95EF
:101DE000C9F712C0B13081F0C3D0B1E00895C0C0CE
:101DF000672F782F8827B85F39F0B93FCCF38695E5
:101E000077956795B395D9F73EF490958095709541
:101E100061957F4F8F4F9F4F0895E89409C097FBBE
:101E20003EF490958095709561957F4F8F4F9F4FB1
:101E30009923A9F0F92F96E9BB279395F6958795F5
:101E400077956795B795F111F8CFFAF4BB0F11F4B8
:101E500060FF1BC06F5F7F4F8F4F9F4F16C088235F
:101E600011F096E911C0772321F09EE8872F762F95
:101E700005C0662371F096E8862F70E060E02AF0D6
:101E80009A95660F771F881FDAF7880F96958795C2
:101E900097F90895990F0008550FAA0BE0E8FEEF97
:101EA00016161706E807F907C0F012161306E4071E
:101EB000F50798F0621B730B840B950B39F40A2617
:101EC00061F0232B242B252B21F408950A2609F4F5
:101ED000A140A6958FEF811D811D089597F99F67F9
:101EE00080E870E060E008959FEF80EC08950024A2
:101EF0000A941616170618060906089500240A946F
:101F000012161306140605060895092E0394000CF4
:101F100011F4882352F0BB0F40F4BF2B11F460FF83
:101F200004C06F5F7F4F8F4F9F4F089557FD9058AC
:101F3000440F551F59F05F3F71F04795880F97FB8D
:101F4000991F61F09F3F79F0879508951216130647
:101F50001406551FF2CF4695F1DF08C01616170676
:101F60001806991FF1CF86957105610508940895AB
:101F7000E894BB2766277727CB0197F908958ADF76
:101F800008F48FEF08950BD0C0CFB1DF28F0B6DF93
:101F900018F0952309F0A2CFA7CF1124EACFC6DF0E
:101FA000A0F3959FD1F3950F50E0551F629FF0016C
:101FB000729FBB27F00DB11D639FAA27F00DB11DC5
:101FC000AA1F649F6627B00DA11D661F829F22274E
:101FD000B00DA11D621F739FB00DA11D621F839FD5
:101FE000A00D611D221F749F3327A00D611D231FAB
:101FF000849F600D211D822F762F6A2F11249F57F9
:1020000050408AF0E1F088234AF0EE0FFF1FBB1F1B
:10201000661F771F881F91505040A9F79E3F5105BA
:1020200070F05CCFA6CF5F3FECF3983EDCF3869573
:1020300077956795B795F795E7959F5FC1F7FE2B65
:10204000880F911D9695879597F90895A0E0B0E0C7
:10205000ECE2F0E10C94CB118B016115710519F0E4
:10206000FB01808391837C01F701C1907F01EF0127
:102070008C2D90E00E94C00D892BB1F7FDE2CF12AC
:1020800004C0C990DD24D39405C02BE2C21201C064
:10209000C990D12C7E0141E0E41AF10843E050E000
:1020A00068EB70E0C7010E948011892BE9F47E0182
:1020B00082E0E80EF11C45E050E06BEB70E0C701F8
:1020C0000E948011892B21F47E01E7E0EE0EF11CC5
:1020D0000115110519F0F801F182E08210E0D0E05D
:1020E000C0E8D110FBC0FFC043E050E060EC70E0FE
:1020F000C7010E948011892B49F40115110509F4CB
:10210000EFC02296F801D183C083EAC060E070E09E
:10211000CB01E12CF12CEC2DE053EA3048F5FD2DFC
:10212000F2602D2D2870D2FE06C0211127C02FEF9E
:10213000E21AF20A23C0222319F041E0E41AF1085E
:10214000A5E0B0E09B01AC010E949811660F771FDB
:10215000881F991F6E0F711D811D911D6839E9E956
:102160007E078E07E9E19E0748F0FD2DF66006C068
:10217000EE3F39F4D3FC3DC0FD2DF860C990DF2E51
:10218000CACFE53311F0E531A1F5A881AD3219F4DC
:10219000F0E1DF2A06C0AB3221F0219621E030E0E9
:1021A00004C0A981229622E030E0A053AA3018F0A2
:1021B000C21BD30B1EC0FE0120E030E020384CE0F3
:1021C00034075CF4A901440F551F440F551F240F19
:1021D000351F220F331F2A0F311DA191A053EF018C
:1021E000AA3060F3D4FE03C0319521953109E20E87
:1021F000F31ED1FE07C00115110521F02197F8014A
:10220000D183C0830E940D0F2D2D2370233029F020
:10221000162FD72FC82F092F07C0DC01CB01B058CC
:10222000182FD92FCA2F0B2F20E030E0A901612FE2
:102230007D2F8C2F902F0E94700E882309F454C09C
:10224000F7FE08C0F194E194F1083FEEC32E30E0B0
:10225000D32E04C027EDC22E20E0D22E4601F8E195
:102260008F1A910890E2A92EB12C15C0F601459164
:10227000559165917491242F352F462F572F612F3B
:102280007D2F8C2F902F0E94C30F162FD72FC82F72
:10229000092FEA18FB08EA14FB0444F724E0C21AE9
:1022A000D108B594A794C814D904A9F7612F7D2F3C
:1022B0008C2F902F282F220F292F221F2F3F39F0EC
:1022C00020E030E0A9010E94700E81110DC082E271
:1022D00090E09093DD028093DC0206C00FEF04C013
:1022E00010E0D0E0C0EC0FE7612F7D2F8C2F902FF6
:1022F000CDB7DEB7ECE00C94E71199278827089555
:10230000FB01DC014150504088F08D9181341CF07C
:102310008B350CF4805E659161341CF06B350CF4E8
:10232000605E861B611171F3990B0895881BFCCFC9
:102330000E94FC11A59F900DB49F900DA49F800D4D
:10234000911D11240895A1E21A2EAA1BBB1BFD01A9
:102350000DC0AA1FBB1FEE1FFF1FA217B307E40784
:10236000F50720F0A21BB30BE40BF50B661F771FDC
:10237000881F991F1A9469F76095709580959095BC
:102380009B01AC01BD01CF0108952F923F924F9266
:102390005F926F927F928F929F92AF92BF92CF92F5
:1023A000DF92EF92FF920F931F93CF93DF93CDB7FE
:1023B000DEB7CA1BDB0B0FB6F894DEBF0FBECDBF76
:1023C00009942A88398848885F846E847D848C8447
:1023D0009B84AA84B984C884DF80EE80FD800C8150
:1023E0001B81AA81B981CE0FD11D0FB6F894DEBF33
:1023F0000FBECDBFED010895A29FB001B39FC001F4
:10240000A39F01D0B29F700D811D1124911D0895CD
:10241000EE0FFF1F0590F491E02D0994F894FFCF83
:10242000BA0475040904CE0604000500070006007E
:102430003B2C556E6B6E6F776E20636F6D6D616EAA
:10244000640041726475696E6F2072656164790021
:10245000436F6D6D616E6420455845435554454446
:102460003A002C00436F6D6D616E64204558454302
:10247000555445443A2053544F5000000000001D6D
:0E2480000AA80BB809E709CB090B0A2E0000C9
:00000001FF
